{
  "contractName": "OwnershipLedger",
  "abi": [
    {
      "anonymous": false,
      "inputs": [
        {
          "indexed": false,
          "internalType": "uint256",
          "name": "id",
          "type": "uint256"
        },
        {
          "indexed": false,
          "internalType": "address",
          "name": "newOwner",
          "type": "address"
        }
      ],
      "name": "OwnershipTransferred",
      "type": "event"
    },
    {
      "anonymous": false,
      "inputs": [
        {
          "indexed": false,
          "internalType": "uint256",
          "name": "id",
          "type": "uint256"
        },
        {
          "indexed": false,
          "internalType": "string",
          "name": "location",
          "type": "string"
        },
        {
          "indexed": false,
          "internalType": "uint256",
          "name": "price",
          "type": "uint256"
        },
        {
          "indexed": false,
          "internalType": "address",
          "name": "owner",
          "type": "address"
        }
      ],
      "name": "PropertyRegistered",
      "type": "event"
    },
    {
      "inputs": [
        {
          "internalType": "uint256",
          "name": "",
          "type": "uint256"
        }
      ],
      "name": "properties",
      "outputs": [
        {
          "internalType": "uint256",
          "name": "id",
          "type": "uint256"
        },
        {
          "internalType": "string",
          "name": "location",
          "type": "string"
        },
        {
          "internalType": "uint256",
          "name": "price",
          "type": "uint256"
        },
        {
          "internalType": "address",
          "name": "owner",
          "type": "address"
        }
      ],
      "stateMutability": "view",
      "type": "function"
    },
    {
      "inputs": [],
      "name": "propertyCount",
      "outputs": [
        {
          "internalType": "uint256",
          "name": "",
          "type": "uint256"
        }
      ],
      "stateMutability": "view",
      "type": "function"
    },
    {
      "inputs": [
        {
          "internalType": "string",
          "name": "_location",
          "type": "string"
        },
        {
          "internalType": "uint256",
          "name": "_price",
          "type": "uint256"
        }
      ],
      "name": "registerProperty",
      "outputs": [],
      "stateMutability": "nonpayable",
      "type": "function"
    },
    {
      "inputs": [
        {
          "internalType": "uint256",
          "name": "_propertyId",
          "type": "uint256"
        },
        {
          "internalType": "address",
          "name": "_newOwner",
          "type": "address"
        }
      ],
      "name": "transferOwnership",
      "outputs": [],
      "stateMutability": "nonpayable",
      "type": "function"
    },
    {
      "inputs": [
        {
          "internalType": "uint256",
          "name": "_propertyId",
          "type": "uint256"
        }
      ],
      "name": "getProperty",
      "outputs": [
        {
          "components": [
            {
              "internalType": "uint256",
              "name": "id",
              "type": "uint256"
            },
            {
              "internalType": "string",
              "name": "location",
              "type": "string"
            },
            {
              "internalType": "uint256",
              "name": "price",
              "type": "uint256"
            },
            {
              "internalType": "address",
              "name": "owner",
              "type": "address"
            }
          ],
          "internalType": "struct LandRegistry.Property",
          "name": "",
          "type": "tuple"
        }
      ],
      "stateMutability": "view",
      "type": "function"
    }
  ],
  "bytecode": "0x60806040526000805534801561001457600080fd5b50610e73806100246000396000f3fe608060405234801561001057600080fd5b50600436106100575760003560e01c806329507f731461005c57806332665ffb146100785780637c539718146100a8578063c361a335146100c4578063f7b10808146100e2575b600080fd5b61007660048036038101906100719190610653565b610115565b005b610092600480360381019061008d9190610693565b61024b565b60405161009f91906107d1565b60405180910390f35b6100c260048036038101906100bd9190610928565b610374565b005b6100cc61048f565b6040516100d99190610993565b60405180910390f35b6100fc60048036038101906100f79190610693565b610495565b60405161010c9493929190610a07565b60405180910390f35b3373ffffffffffffffffffffffffffffffffffffffff166001600084815260200190815260200160002060030160009054906101000a900473ffffffffffffffffffffffffffffffffffffffff1673ffffffffffffffffffffffffffffffffffffffff16146101b9576040517f08c379a00000000000000000000000000000000000000000000000000000000081526004016101b090610a9f565b60405180910390fd5b806001600084815260200190815260200160002060030160006101000a81548173ffffffffffffffffffffffffffffffffffffffff021916908373ffffffffffffffffffffffffffffffffffffffff1602179055507fba8cc72bdfdb4f3e2281c3f17f6be90c470f76dd1106321a2928859835874bc2828260405161023f929190610abf565b60405180910390a15050565b61025361056d565b600160008381526020019081526020016000206040518060800160405290816000820154815260200160018201805461028b90610b17565b80601f01602080910402602001604051908101604052809291908181526020018280546102b790610b17565b80156103045780601f106102d957610100808354040283529160200191610304565b820191906000526020600020905b8154815290600101906020018083116102e757829003601f168201915b50505050508152602001600282015481526020016003820160009054906101000a900473ffffffffffffffffffffffffffffffffffffffff1673ffffffffffffffffffffffffffffffffffffffff1673ffffffffffffffffffffffffffffffffffffffff16815250509050919050565b60008081548092919061038690610b77565b9190505550604051806080016040528060005481526020018381526020018281526020013373ffffffffffffffffffffffffffffffffffffffff1681525060016000805481526020019081526020016000206000820151816000015560208201518160010190816103f79190610d6b565b506040820151816002015560608201518160030160006101000a81548173ffffffffffffffffffffffffffffffffffffffff021916908373ffffffffffffffffffffffffffffffffffffffff1602179055509050507fa9bb0e06a9fbd915d2046d92a99186d1d2da1ff11e30692441758ff72590fb786000548383336040516104839493929190610a07565b60405180910390a15050565b60005481565b60016020528060005260406000206000915090508060000154908060010180546104be90610b17565b80601f01602080910402602001604051908101604052809291908181526020018280546104ea90610b17565b80156105375780601f1061050c57610100808354040283529160200191610537565b820191906000526020600020905b81548152906001019060200180831161051a57829003601f168201915b5050505050908060020154908060030160009054906101000a900473ffffffffffffffffffffffffffffffffffffffff16905084565b6040518060800160405280600081526020016060815260200160008152602001600073ffffffffffffffffffffffffffffffffffffffff1681525090565b6000604051905090565b600080fd5b600080fd5b6000819050919050565b6105d2816105bf565b81146105dd57600080fd5b50565b6000813590506105ef816105c9565b92915050565b600073ffffffffffffffffffffffffffffffffffffffff82169050919050565b6000610620826105f5565b9050919050565b61063081610615565b811461063b57600080fd5b50565b60008135905061064d81610627565b92915050565b6000806040838503121561066a576106696105b5565b5b6000610678858286016105e0565b92505060206106898582860161063e565b9150509250929050565b6000602082840312156106a9576106a86105b5565b5b60006106b7848285016105e0565b91505092915050565b6106c9816105bf565b82525050565b600081519050919050565b600082825260208201905092915050565b60005b838110156107095780820151818401526020810190506106ee565b60008484015250505050565b6000601f19601f8301169050919050565b6000610731826106cf565b61073b81856106da565b935061074b8185602086016106eb565b61075481610715565b840191505092915050565b61076881610615565b82525050565b600060808301600083015161078660008601826106c0565b506020830151848203602086015261079e8282610726565b91505060408301516107b360408601826106c0565b5060608301516107c6606086018261075f565b508091505092915050565b600060208201905081810360008301526107eb818461076e565b905092915050565b600080fd5b600080fd5b7f4e487b7100000000000000000000000000000000000000000000000000000000600052604160045260246000fd5b61083582610715565b810181811067ffffffffffffffff82111715610854576108536107fd565b5b80604052505050565b60006108676105ab565b9050610873828261082c565b919050565b600067ffffffffffffffff821115610893576108926107fd565b5b61089c82610715565b9050602081019050919050565b82818337600083830152505050565b60006108cb6108c684610878565b61085d565b9050828152602081018484840111156108e7576108e66107f8565b5b6108f28482856108a9565b509392505050565b600082601f83011261090f5761090e6107f3565b5b813561091f8482602086016108b8565b91505092915050565b6000806040838503121561093f5761093e6105b5565b5b600083013567ffffffffffffffff81111561095d5761095c6105ba565b5b610969858286016108fa565b925050602061097a858286016105e0565b9150509250929050565b61098d816105bf565b82525050565b60006020820190506109a86000830184610984565b92915050565b600082825260208201905092915050565b60006109ca826106cf565b6109d481856109ae565b93506109e48185602086016106eb565b6109ed81610715565b840191505092915050565b610a0181610615565b82525050565b6000608082019050610a1c6000830187610984565b8181036020830152610a2e81866109bf565b9050610a3d6040830185610984565b610a4a60608301846109f8565b95945050505050565b7f4e6f7420746865206f776e657200000000000000000000000000000000000000600082015250565b6000610a89600d836109ae565b9150610a9482610a53565b602082019050919050565b60006020820190508181036000830152610ab881610a7c565b9050919050565b6000604082019050610ad46000830185610984565b610ae160208301846109f8565b9392505050565b7f4e487b7100000000000000000000000000000000000000000000000000000000600052602260045260246000fd5b60006002820490506001821680610b2f57607f821691505b602082108103610b4257610b41610ae8565b5b50919050565b7f4e487b7100000000000000000000000000000000000000000000000000000000600052601160045260246000fd5b6000610b82826105bf565b91507fffffffffffffffffffffffffffffffffffffffffffffffffffffffffffffffff8203610bb457610bb3610b48565b5b600182019050919050565b60008190508160005260206000209050919050565b60006020601f8301049050919050565b600082821b905092915050565b600060088302610c217fffffffffffffffffffffffffffffffffffffffffffffffffffffffffffffffff82610be4565b610c2b8683610be4565b95508019841693508086168417925050509392505050565b6000819050919050565b6000610c68610c63610c5e846105bf565b610c43565b6105bf565b9050919050565b6000819050919050565b610c8283610c4d565b610c96610c8e82610c6f565b848454610bf1565b825550505050565b600090565b610cab610c9e565b610cb6818484610c79565b505050565b5b81811015610cda57610ccf600082610ca3565b600181019050610cbc565b5050565b601f821115610d1f57610cf081610bbf565b610cf984610bd4565b81016020851015610d08578190505b610d1c610d1485610bd4565b830182610cbb565b50505b505050565b600082821c905092915050565b6000610d4260001984600802610d24565b1980831691505092915050565b6000610d5b8383610d31565b9150826002028217905092915050565b610d74826106cf565b67ffffffffffffffff811115610d8d57610d8c6107fd565b5b610d978254610b17565b610da2828285610cde565b600060209050601f831160018114610dd55760008415610dc3578287015190505b610dcd8582610d4f565b865550610e35565b601f198416610de386610bbf565b60005b82811015610e0b57848901518255600182019150602085019450602081019050610de6565b86831015610e285784890151610e24601f891682610d31565b8355505b6001600288020188555050505b50505050505056fea2646970667358221220e45088a79d32bfc66546ea2fbc2237c2435ba51cbc5a275f1280b6063c1831da64736f6c63430008130033",
  "immutableReferences": {},
  "source": "// SPDX-License-Identifier: MIT\r\npragma solidity 0.8.19;\r\n\r\ncontract LandRegistry {\r\n    struct Property {\r\n        uint256 id;\r\n        string location;\r\n        uint256 price;\r\n        address owner;\r\n    }\r\n\r\n    uint256 public propertyCount = 0;\r\n    mapping(uint256 => Property) public properties;\r\n\r\n    event PropertyRegistered(uint256 id, string location, uint256 price, address owner);\r\n    event OwnershipTransferred(uint256 id, address newOwner);\r\n\r\n    function registerProperty(string memory _location, uint256 _price) public {\r\n        propertyCount++;\r\n        properties[propertyCount] = Property(propertyCount, _location, _price, msg.sender);\r\n        emit PropertyRegistered(propertyCount, _location, _price, msg.sender);\r\n    }\r\n\r\n    function transferOwnership(uint256 _propertyId, address _newOwner) public {\r\n        require(properties[_propertyId].owner == msg.sender, \"Not the owner\");\r\n        properties[_propertyId].owner = _newOwner;\r\n        emit OwnershipTransferred(_propertyId, _newOwner);\r\n    }\r\n\r\n    function getProperty(uint256 _propertyId) public view returns (Property memory) {\r\n        return properties[_propertyId];\r\n    }\r\n}\r\n",
  "sourcePath": "C:\\Users\\21jr1\\eth-min-pro\\contracts\\LandRegistry.sol",
  "compiler": {
    "name": "solc",
    "version": "0.8.19+commit.7dd6d404.Emscripten.clang"
  },
  "schemaVersion": "3.4.16",
  "updatedAt": "2024-09-23T06:51:33.988Z",
  "devdoc": {
    "kind": "dev",
    "methods": {},
    "version": 1
  },
  "userdoc": {
    "kind": "user",
    "methods": {},
    "version": 1
  }
}